{
  "transactions": [
    {
      "hash": "0x15dcec38036fa5b5b0397c28f615d11c822d6d2d4bed757daa7bd5a44a024554",
      "transactionType": "CALL",
      "contractName": null,
      "contractAddress": "0xeaf974f3dca1b444848b0a31e411187949596e5c",
      "function": "queueMerkleRoot(bytes32)",
      "arguments": [
        "0x09213476996225694d527fda07106529a367d7dd51106a5c1ef453662cb8d00c"
      ],
      "transaction": {
        "from": "0xe07c1f87a82c9e5aa936748370e5a8dc8ef3c2bb",
        "to": "0xeaf974f3dca1b444848b0a31e411187949596e5c",
        "gas": "0x18f0a",
        "value": "0x0",
        "input": "0x72b6873d09213476996225694d527fda07106529a367d7dd51106a5c1ef453662cb8d00c",
        "nonce": "0x7",
        "chainId": "0x2105"
      },
      "additionalContracts": [],
      "isFixedGasLimit": false
    }
  ],
  "receipts": [
    {
      "status": "0x1",
      "cumulativeGasUsed": "0x10bcc21",
      "logs": [
        {
          "address": "0xeaf974f3dca1b444848b0a31e411187949596e5c",
          "topics": [
            "0x292e304c189ef2fc433c40fb5e3edbda3e61bafe19f05e7f6e5f3064f0665730",
            "0x09213476996225694d527fda07106529a367d7dd51106a5c1ef453662cb8d00c"
          ],
          "data": "0x0000000000000000000000000000000000000000000000000000000069800783",
          "blockHash": "0x0007dc6785d0e3541e614e05e71fb118209339b6f2491458e822abfd31b60ccb",
          "blockNumber": "0x27ace48",
          "blockTimestamp": "0x697ff973",
          "transactionHash": "0x15dcec38036fa5b5b0397c28f615d11c822d6d2d4bed757daa7bd5a44a024554",
          "transactionIndex": "0x37",
          "logIndex": "0x149",
          "removed": false
        }
      ],
      "logsBloom": "0x00000000000000001000000000000000000000000000000000000000000000000000000000000000000000000000000000000000000000000000000000000000000000000000000000000000000000000000000000000000000000000000000000000000000000000000000000000000000000000000000000000000000000000000000000000040020000000001000000000040000000000000000000000000000000000000000000000000000000000000000000000000000000000000000000000000000000000000000000000000000000000000000010000000000000000000000000000000000000080000800000000000000000000000040000000000",
      "type": "0x2",
      "transactionHash": "0x15dcec38036fa5b5b0397c28f615d11c822d6d2d4bed757daa7bd5a44a024554",
      "transactionIndex": "0x37",
      "blockHash": "0x0007dc6785d0e3541e614e05e71fb118209339b6f2491458e822abfd31b60ccb",
      "blockNumber": "0x27ace48",
      "gasUsed": "0x110d9",
      "effectiveGasPrice": "0x902881",
      "blobGasUsed": "0x364c",
      "from": "0xe07c1f87a82c9e5aa936748370e5a8dc8ef3c2bb",
      "to": "0xeaf974f3dca1b444848b0a31e411187949596e5c",
      "contractAddress": null,
      "daFootprintGasScalar": "0x8b",
      "l1BaseFeeScalar": "0x8dd",
      "l1BlobBaseFee": "0x598011",
      "l1BlobBaseFeeScalar": "0x101c12",
      "l1Fee": "0x3d225f84",
      "l1GasPrice": "0x6ac26f8",
      "l1GasUsed": "0x640"
    }
  ],
  "libraries": [],
  "pending": [],
  "returns": {},
  "timestamp": 1769994612877,
  "chain": 8453,
  "commit": "998aced"
}