{
  "transactions": [
    {
      "hash": "0x584a359ca568a6d4c01647c962016f78c79fee5a9c1b534bfcec577e86b3b687",
      "transactionType": "CREATE",
      "contractName": "MockERC20",
      "contractAddress": "0x79313774d593930b5b33e8712c0b5ec27bd25bf3",
      "function": null,
      "arguments": [
        "Virtual Protocol",
        "VIRTUAL",
        "18"
      ],
      "transaction": {
        "from": "0xe07c1f87a82c9e5aa936748370e5a8dc8ef3c2bb",
        "gas": "0xac571",
        "value": "0x0",
        "input": "0x608060405234801562000010575f80fd5b5060405162000a7938038062000a79833981016040819052620000339162000134565b828260036200004383826200023d565b5060046200005282826200023d565b50506005805460ff191660ff93909316929092179091555062000309915050565b634e487b7160e01b5f52604160045260245ffd5b5f82601f83011262000097575f80fd5b81516001600160401b0380821115620000b457620000b462000073565b604051601f8301601f19908116603f01168101908282118183101715620000df57620000df62000073565b8160405283815260209250866020858801011115620000fc575f80fd5b5f91505b838210156200011f578582018301518183018401529082019062000100565b5f602085830101528094505050505092915050565b5f805f6060848603121562000147575f80fd5b83516001600160401b03808211156200015e575f80fd5b6200016c8783880162000087565b9450602086015191508082111562000182575f80fd5b50620001918682870162000087565b925050604084015160ff81168114620001a8575f80fd5b809150509250925092565b600181811c90821680620001c857607f821691505b602082108103620001e757634e487b7160e01b5f52602260045260245ffd5b50919050565b601f8211156200023857805f5260205f20601f840160051c81016020851015620002145750805b601f840160051c820191505b8181101562000235575f815560010162000220565b50505b505050565b81516001600160401b0381111562000259576200025962000073565b62000271816200026a8454620001b3565b84620001ed565b602080601f831160018114620002a7575f84156200028f5750858301515b5f19600386901b1c1916600185901b17855562000301565b5f85815260208120601f198616915b82811015620002d757888601518255948401946001909101908401620002b6565b5085821015620002f557878501515f19600388901b60f8161c191681555b505060018460011b0185555b505050505050565b61076280620003175f395ff3fe608060405234801561000f575f80fd5b506004361061009b575f3560e01c806340c10f191161006357806340c10f191461011a57806370a082311461012f57806395d89b4114610157578063a9059cbb1461015f578063dd62ed3e14610172575f80fd5b806306fdde031461009f578063095ea7b3146100bd57806318160ddd146100e057806323b872dd146100f2578063313ce56714610105575b5f80fd5b6100a76101aa565b6040516100b491906105bc565b60405180910390f35b6100d06100cb366004610623565b61023a565b60405190151581526020016100b4565b6002545b6040519081526020016100b4565b6100d061010036600461064b565b610253565b60055460405160ff90911681526020016100b4565b61012d610128366004610623565b610276565b005b6100e461013d366004610684565b6001600160a01b03165f9081526020819052604090205490565b6100a7610284565b6100d061016d366004610623565b610293565b6100e46101803660046106a4565b6001600160a01b039182165f90815260016020908152604080832093909416825291909152205490565b6060600380546101b9906106d5565b80601f01602080910402602001604051908101604052809291908181526020018280546101e5906106d5565b80156102305780601f1061020757610100808354040283529160200191610230565b820191905f5260205f20905b81548152906001019060200180831161021357829003601f168201915b5050505050905090565b5f336102478185856102a0565b60019150505b92915050565b5f336102608582856102b2565b61026b858585610333565b506001949350505050565b6102808282610390565b5050565b6060600480546101b9906106d5565b5f33610247818585610333565b6102ad83838360016103c4565b505050565b6001600160a01b038381165f908152600160209081526040808320938616835292905220545f1981101561032d578181101561031f57604051637dc7a0d960e11b81526001600160a01b038416600482015260248101829052604481018390526064015b60405180910390fd5b61032d84848484035f6103c4565b50505050565b6001600160a01b03831661035c57604051634b637e8f60e11b81525f6004820152602401610316565b6001600160a01b0382166103855760405163ec442f0560e01b81525f6004820152602401610316565b6102ad838383610496565b6001600160a01b0382166103b95760405163ec442f0560e01b81525f6004820152602401610316565b6102805f8383610496565b6001600160a01b0384166103ed5760405163e602df0560e01b81525f6004820152602401610316565b6001600160a01b03831661041657604051634a1406b160e11b81525f6004820152602401610316565b6001600160a01b038085165f908152600160209081526040808320938716835292905220829055801561032d57826001600160a01b0316846001600160a01b03167f8c5be1e5ebec7d5bd14f71427d1e84f3dd0314c0f7b2291e5b200ac8c7c3b9258460405161048891815260200190565b60405180910390a350505050565b6001600160a01b0383166104c0578060025f8282546104b5919061070d565b909155506105309050565b6001600160a01b0383165f90815260208190526040902054818110156105125760405163391434e360e21b81526001600160a01b03851660048201526024810182905260448101839052606401610316565b6001600160a01b0384165f9081526020819052604090209082900390555b6001600160a01b03821661054c5760028054829003905561056a565b6001600160a01b0382165f9081526020819052604090208054820190555b816001600160a01b0316836001600160a01b03167fddf252ad1be2c89b69c2b068fc378daa952ba7f163c4a11628f55a4df523b3ef836040516105af91815260200190565b60405180910390a3505050565b5f602080835283518060208501525f5b818110156105e8578581018301518582016040015282016105cc565b505f604082860101526040601f19601f8301168501019250505092915050565b80356001600160a01b038116811461061e575f80fd5b919050565b5f8060408385031215610634575f80fd5b61063d83610608565b946020939093013593505050565b5f805f6060848603121561065d575f80fd5b61066684610608565b925061067460208501610608565b9150604084013590509250925092565b5f60208284031215610694575f80fd5b61069d82610608565b9392505050565b5f80604083850312156106b5575f80fd5b6106be83610608565b91506106cc60208401610608565b90509250929050565b600181811c908216806106e957607f821691505b60208210810361070757634e487b7160e01b5f52602260045260245ffd5b50919050565b8082018082111561024d57634e487b7160e01b5f52601160045260245ffdfea2646970667358221220ef97e059b379a3b3fcc55437ca0463b9e05644549317f7aca0884dc0b8ffbd4b64736f6c63430008180033000000000000000000000000000000000000000000000000000000000000006000000000000000000000000000000000000000000000000000000000000000a0000000000000000000000000000000000000000000000000000000000000001200000000000000000000000000000000000000000000000000000000000000105669727475616c2050726f746f636f6c0000000000000000000000000000000000000000000000000000000000000000000000000000000000000000000000075649525455414c00000000000000000000000000000000000000000000000000",
        "nonce": "0x6",
        "chainId": "0x14a34"
      },
      "additionalContracts": [],
      "isFixedGasLimit": false
    },
    {
      "hash": "0x2d2e7e991f872179b019c982b5f9c0bc8d5c1d74a962d1bf6388306ad9fa7955",
      "transactionType": "CREATE",
      "contractName": "MockERC20",
      "contractAddress": "0x0cb68358c9d76b6652a7fde3364fff2c3ddf2de1",
      "function": null,
      "arguments": [
        "Venice Token",
        "VVV",
        "18"
      ],
      "transaction": {
        "from": "0xe07c1f87a82c9e5aa936748370e5a8dc8ef3c2bb",
        "gas": "0xac4f4",
        "value": "0x0",
        "input": "0x608060405234801562000010575f80fd5b5060405162000a7938038062000a79833981016040819052620000339162000134565b828260036200004383826200023d565b5060046200005282826200023d565b50506005805460ff191660ff93909316929092179091555062000309915050565b634e487b7160e01b5f52604160045260245ffd5b5f82601f83011262000097575f80fd5b81516001600160401b0380821115620000b457620000b462000073565b604051601f8301601f19908116603f01168101908282118183101715620000df57620000df62000073565b8160405283815260209250866020858801011115620000fc575f80fd5b5f91505b838210156200011f578582018301518183018401529082019062000100565b5f602085830101528094505050505092915050565b5f805f6060848603121562000147575f80fd5b83516001600160401b03808211156200015e575f80fd5b6200016c8783880162000087565b9450602086015191508082111562000182575f80fd5b50620001918682870162000087565b925050604084015160ff81168114620001a8575f80fd5b809150509250925092565b600181811c90821680620001c857607f821691505b602082108103620001e757634e487b7160e01b5f52602260045260245ffd5b50919050565b601f8211156200023857805f5260205f20601f840160051c81016020851015620002145750805b601f840160051c820191505b8181101562000235575f815560010162000220565b50505b505050565b81516001600160401b0381111562000259576200025962000073565b62000271816200026a8454620001b3565b84620001ed565b602080601f831160018114620002a7575f84156200028f5750858301515b5f19600386901b1c1916600185901b17855562000301565b5f85815260208120601f198616915b82811015620002d757888601518255948401946001909101908401620002b6565b5085821015620002f557878501515f19600388901b60f8161c191681555b505060018460011b0185555b505050505050565b61076280620003175f395ff3fe608060405234801561000f575f80fd5b506004361061009b575f3560e01c806340c10f191161006357806340c10f191461011a57806370a082311461012f57806395d89b4114610157578063a9059cbb1461015f578063dd62ed3e14610172575f80fd5b806306fdde031461009f578063095ea7b3146100bd57806318160ddd146100e057806323b872dd146100f2578063313ce56714610105575b5f80fd5b6100a76101aa565b6040516100b491906105bc565b60405180910390f35b6100d06100cb366004610623565b61023a565b60405190151581526020016100b4565b6002545b6040519081526020016100b4565b6100d061010036600461064b565b610253565b60055460405160ff90911681526020016100b4565b61012d610128366004610623565b610276565b005b6100e461013d366004610684565b6001600160a01b03165f9081526020819052604090205490565b6100a7610284565b6100d061016d366004610623565b610293565b6100e46101803660046106a4565b6001600160a01b039182165f90815260016020908152604080832093909416825291909152205490565b6060600380546101b9906106d5565b80601f01602080910402602001604051908101604052809291908181526020018280546101e5906106d5565b80156102305780601f1061020757610100808354040283529160200191610230565b820191905f5260205f20905b81548152906001019060200180831161021357829003601f168201915b5050505050905090565b5f336102478185856102a0565b60019150505b92915050565b5f336102608582856102b2565b61026b858585610333565b506001949350505050565b6102808282610390565b5050565b6060600480546101b9906106d5565b5f33610247818585610333565b6102ad83838360016103c4565b505050565b6001600160a01b038381165f908152600160209081526040808320938616835292905220545f1981101561032d578181101561031f57604051637dc7a0d960e11b81526001600160a01b038416600482015260248101829052604481018390526064015b60405180910390fd5b61032d84848484035f6103c4565b50505050565b6001600160a01b03831661035c57604051634b637e8f60e11b81525f6004820152602401610316565b6001600160a01b0382166103855760405163ec442f0560e01b81525f6004820152602401610316565b6102ad838383610496565b6001600160a01b0382166103b95760405163ec442f0560e01b81525f6004820152602401610316565b6102805f8383610496565b6001600160a01b0384166103ed5760405163e602df0560e01b81525f6004820152602401610316565b6001600160a01b03831661041657604051634a1406b160e11b81525f6004820152602401610316565b6001600160a01b038085165f908152600160209081526040808320938716835292905220829055801561032d57826001600160a01b0316846001600160a01b03167f8c5be1e5ebec7d5bd14f71427d1e84f3dd0314c0f7b2291e5b200ac8c7c3b9258460405161048891815260200190565b60405180910390a350505050565b6001600160a01b0383166104c0578060025f8282546104b5919061070d565b909155506105309050565b6001600160a01b0383165f90815260208190526040902054818110156105125760405163391434e360e21b81526001600160a01b03851660048201526024810182905260448101839052606401610316565b6001600160a01b0384165f9081526020819052604090209082900390555b6001600160a01b03821661054c5760028054829003905561056a565b6001600160a01b0382165f9081526020819052604090208054820190555b816001600160a01b0316836001600160a01b03167fddf252ad1be2c89b69c2b068fc378daa952ba7f163c4a11628f55a4df523b3ef836040516105af91815260200190565b60405180910390a3505050565b5f602080835283518060208501525f5b818110156105e8578581018301518582016040015282016105cc565b505f604082860101526040601f19601f8301168501019250505092915050565b80356001600160a01b038116811461061e575f80fd5b919050565b5f8060408385031215610634575f80fd5b61063d83610608565b946020939093013593505050565b5f805f6060848603121561065d575f80fd5b61066684610608565b925061067460208501610608565b9150604084013590509250925092565b5f60208284031215610694575f80fd5b61069d82610608565b9392505050565b5f80604083850312156106b5575f80fd5b6106be83610608565b91506106cc60208401610608565b90509250929050565b600181811c908216806106e957607f821691505b60208210810361070757634e487b7160e01b5f52602260045260245ffd5b50919050565b8082018082111561024d57634e487b7160e01b5f52601160045260245ffdfea2646970667358221220ef97e059b379a3b3fcc55437ca0463b9e05644549317f7aca0884dc0b8ffbd4b64736f6c63430008180033000000000000000000000000000000000000000000000000000000000000006000000000000000000000000000000000000000000000000000000000000000a00000000000000000000000000000000000000000000000000000000000000012000000000000000000000000000000000000000000000000000000000000000c56656e69636520546f6b656e000000000000000000000000000000000000000000000000000000000000000000000000000000000000000000000000000000035656560000000000000000000000000000000000000000000000000000000000",
        "nonce": "0x7",
        "chainId": "0x14a34"
      },
      "additionalContracts": [],
      "isFixedGasLimit": false
    },
    {
      "hash": "0x41db5706ad5c193b1a5863ec84e259405334aad367df607ecfbcb40e7b804927",
      "transactionType": "CREATE",
      "contractName": "MockERC20",
      "contractAddress": "0xd8a46ed38e9d874fd844bc47b912dd0ec35ebae4",
      "function": null,
      "arguments": [
        "aixbt",
        "AIXBT",
        "18"
      ],
      "transaction": {
        "from": "0xe07c1f87a82c9e5aa936748370e5a8dc8ef3c2bb",
        "gas": "0xac4a6",
        "value": "0x0",
        "input": "0x608060405234801562000010575f80fd5b5060405162000a7938038062000a79833981016040819052620000339162000134565b828260036200004383826200023d565b5060046200005282826200023d565b50506005805460ff191660ff93909316929092179091555062000309915050565b634e487b7160e01b5f52604160045260245ffd5b5f82601f83011262000097575f80fd5b81516001600160401b0380821115620000b457620000b462000073565b604051601f8301601f19908116603f01168101908282118183101715620000df57620000df62000073565b8160405283815260209250866020858801011115620000fc575f80fd5b5f91505b838210156200011f578582018301518183018401529082019062000100565b5f602085830101528094505050505092915050565b5f805f6060848603121562000147575f80fd5b83516001600160401b03808211156200015e575f80fd5b6200016c8783880162000087565b9450602086015191508082111562000182575f80fd5b50620001918682870162000087565b925050604084015160ff81168114620001a8575f80fd5b809150509250925092565b600181811c90821680620001c857607f821691505b602082108103620001e757634e487b7160e01b5f52602260045260245ffd5b50919050565b601f8211156200023857805f5260205f20601f840160051c81016020851015620002145750805b601f840160051c820191505b8181101562000235575f815560010162000220565b50505b505050565b81516001600160401b0381111562000259576200025962000073565b62000271816200026a8454620001b3565b84620001ed565b602080601f831160018114620002a7575f84156200028f5750858301515b5f19600386901b1c1916600185901b17855562000301565b5f85815260208120601f198616915b82811015620002d757888601518255948401946001909101908401620002b6565b5085821015620002f557878501515f19600388901b60f8161c191681555b505060018460011b0185555b505050505050565b61076280620003175f395ff3fe608060405234801561000f575f80fd5b506004361061009b575f3560e01c806340c10f191161006357806340c10f191461011a57806370a082311461012f57806395d89b4114610157578063a9059cbb1461015f578063dd62ed3e14610172575f80fd5b806306fdde031461009f578063095ea7b3146100bd57806318160ddd146100e057806323b872dd146100f2578063313ce56714610105575b5f80fd5b6100a76101aa565b6040516100b491906105bc565b60405180910390f35b6100d06100cb366004610623565b61023a565b60405190151581526020016100b4565b6002545b6040519081526020016100b4565b6100d061010036600461064b565b610253565b60055460405160ff90911681526020016100b4565b61012d610128366004610623565b610276565b005b6100e461013d366004610684565b6001600160a01b03165f9081526020819052604090205490565b6100a7610284565b6100d061016d366004610623565b610293565b6100e46101803660046106a4565b6001600160a01b039182165f90815260016020908152604080832093909416825291909152205490565b6060600380546101b9906106d5565b80601f01602080910402602001604051908101604052809291908181526020018280546101e5906106d5565b80156102305780601f1061020757610100808354040283529160200191610230565b820191905f5260205f20905b81548152906001019060200180831161021357829003601f168201915b5050505050905090565b5f336102478185856102a0565b60019150505b92915050565b5f336102608582856102b2565b61026b858585610333565b506001949350505050565b6102808282610390565b5050565b6060600480546101b9906106d5565b5f33610247818585610333565b6102ad83838360016103c4565b505050565b6001600160a01b038381165f908152600160209081526040808320938616835292905220545f1981101561032d578181101561031f57604051637dc7a0d960e11b81526001600160a01b038416600482015260248101829052604481018390526064015b60405180910390fd5b61032d84848484035f6103c4565b50505050565b6001600160a01b03831661035c57604051634b637e8f60e11b81525f6004820152602401610316565b6001600160a01b0382166103855760405163ec442f0560e01b81525f6004820152602401610316565b6102ad838383610496565b6001600160a01b0382166103b95760405163ec442f0560e01b81525f6004820152602401610316565b6102805f8383610496565b6001600160a01b0384166103ed5760405163e602df0560e01b81525f6004820152602401610316565b6001600160a01b03831661041657604051634a1406b160e11b81525f6004820152602401610316565b6001600160a01b038085165f908152600160209081526040808320938716835292905220829055801561032d57826001600160a01b0316846001600160a01b03167f8c5be1e5ebec7d5bd14f71427d1e84f3dd0314c0f7b2291e5b200ac8c7c3b9258460405161048891815260200190565b60405180910390a350505050565b6001600160a01b0383166104c0578060025f8282546104b5919061070d565b909155506105309050565b6001600160a01b0383165f90815260208190526040902054818110156105125760405163391434e360e21b81526001600160a01b03851660048201526024810182905260448101839052606401610316565b6001600160a01b0384165f9081526020819052604090209082900390555b6001600160a01b03821661054c5760028054829003905561056a565b6001600160a01b0382165f9081526020819052604090208054820190555b816001600160a01b0316836001600160a01b03167fddf252ad1be2c89b69c2b068fc378daa952ba7f163c4a11628f55a4df523b3ef836040516105af91815260200190565b60405180910390a3505050565b5f602080835283518060208501525f5b818110156105e8578581018301518582016040015282016105cc565b505f604082860101526040601f19601f8301168501019250505092915050565b80356001600160a01b038116811461061e575f80fd5b919050565b5f8060408385031215610634575f80fd5b61063d83610608565b946020939093013593505050565b5f805f6060848603121561065d575f80fd5b61066684610608565b925061067460208501610608565b9150604084013590509250925092565b5f60208284031215610694575f80fd5b61069d82610608565b9392505050565b5f80604083850312156106b5575f80fd5b6106be83610608565b91506106cc60208401610608565b90509250929050565b600181811c908216806106e957607f821691505b60208210810361070757634e487b7160e01b5f52602260045260245ffd5b50919050565b8082018082111561024d57634e487b7160e01b5f52601160045260245ffdfea2646970667358221220ef97e059b379a3b3fcc55437ca0463b9e05644549317f7aca0884dc0b8ffbd4b64736f6c63430008180033000000000000000000000000000000000000000000000000000000000000006000000000000000000000000000000000000000000000000000000000000000a000000000000000000000000000000000000000000000000000000000000000120000000000000000000000000000000000000000000000000000000000000005616978627400000000000000000000000000000000000000000000000000000000000000000000000000000000000000000000000000000000000000000000054149584254000000000000000000000000000000000000000000000000000000",
        "nonce": "0x8",
        "chainId": "0x14a34"
      },
      "additionalContracts": [],
      "isFixedGasLimit": false
    },
    {
      "hash": "0x21a8a48c50d7394149a5fa52deffcef2a6bcc5a30d97fdf56415db8ae2ff3eef",
      "transactionType": "CREATE",
      "contractName": "MockERC20",
      "contractAddress": "0x447bcaa1a541e9c806789d90f23f2c0603fa313a",
      "function": null,
      "arguments": [
        "Luna AI",
        "LUNA",
        "18"
      ],
      "transaction": {
        "from": "0xe07c1f87a82c9e5aa936748370e5a8dc8ef3c2bb",
        "gas": "0xac4b6",
        "value": "0x0",
        "input": "0x608060405234801562000010575f80fd5b5060405162000a7938038062000a79833981016040819052620000339162000134565b828260036200004383826200023d565b5060046200005282826200023d565b50506005805460ff191660ff93909316929092179091555062000309915050565b634e487b7160e01b5f52604160045260245ffd5b5f82601f83011262000097575f80fd5b81516001600160401b0380821115620000b457620000b462000073565b604051601f8301601f19908116603f01168101908282118183101715620000df57620000df62000073565b8160405283815260209250866020858801011115620000fc575f80fd5b5f91505b838210156200011f578582018301518183018401529082019062000100565b5f602085830101528094505050505092915050565b5f805f6060848603121562000147575f80fd5b83516001600160401b03808211156200015e575f80fd5b6200016c8783880162000087565b9450602086015191508082111562000182575f80fd5b50620001918682870162000087565b925050604084015160ff81168114620001a8575f80fd5b809150509250925092565b600181811c90821680620001c857607f821691505b602082108103620001e757634e487b7160e01b5f52602260045260245ffd5b50919050565b601f8211156200023857805f5260205f20601f840160051c81016020851015620002145750805b601f840160051c820191505b8181101562000235575f815560010162000220565b50505b505050565b81516001600160401b0381111562000259576200025962000073565b62000271816200026a8454620001b3565b84620001ed565b602080601f831160018114620002a7575f84156200028f5750858301515b5f19600386901b1c1916600185901b17855562000301565b5f85815260208120601f198616915b82811015620002d757888601518255948401946001909101908401620002b6565b5085821015620002f557878501515f19600388901b60f8161c191681555b505060018460011b0185555b505050505050565b61076280620003175f395ff3fe608060405234801561000f575f80fd5b506004361061009b575f3560e01c806340c10f191161006357806340c10f191461011a57806370a082311461012f57806395d89b4114610157578063a9059cbb1461015f578063dd62ed3e14610172575f80fd5b806306fdde031461009f578063095ea7b3146100bd57806318160ddd146100e057806323b872dd146100f2578063313ce56714610105575b5f80fd5b6100a76101aa565b6040516100b491906105bc565b60405180910390f35b6100d06100cb366004610623565b61023a565b60405190151581526020016100b4565b6002545b6040519081526020016100b4565b6100d061010036600461064b565b610253565b60055460405160ff90911681526020016100b4565b61012d610128366004610623565b610276565b005b6100e461013d366004610684565b6001600160a01b03165f9081526020819052604090205490565b6100a7610284565b6100d061016d366004610623565b610293565b6100e46101803660046106a4565b6001600160a01b039182165f90815260016020908152604080832093909416825291909152205490565b6060600380546101b9906106d5565b80601f01602080910402602001604051908101604052809291908181526020018280546101e5906106d5565b80156102305780601f1061020757610100808354040283529160200191610230565b820191905f5260205f20905b81548152906001019060200180831161021357829003601f168201915b5050505050905090565b5f336102478185856102a0565b60019150505b92915050565b5f336102608582856102b2565b61026b858585610333565b506001949350505050565b6102808282610390565b5050565b6060600480546101b9906106d5565b5f33610247818585610333565b6102ad83838360016103c4565b505050565b6001600160a01b038381165f908152600160209081526040808320938616835292905220545f1981101561032d578181101561031f57604051637dc7a0d960e11b81526001600160a01b038416600482015260248101829052604481018390526064015b60405180910390fd5b61032d84848484035f6103c4565b50505050565b6001600160a01b03831661035c57604051634b637e8f60e11b81525f6004820152602401610316565b6001600160a01b0382166103855760405163ec442f0560e01b81525f6004820152602401610316565b6102ad838383610496565b6001600160a01b0382166103b95760405163ec442f0560e01b81525f6004820152602401610316565b6102805f8383610496565b6001600160a01b0384166103ed5760405163e602df0560e01b81525f6004820152602401610316565b6001600160a01b03831661041657604051634a1406b160e11b81525f6004820152602401610316565b6001600160a01b038085165f908152600160209081526040808320938716835292905220829055801561032d57826001600160a01b0316846001600160a01b03167f8c5be1e5ebec7d5bd14f71427d1e84f3dd0314c0f7b2291e5b200ac8c7c3b9258460405161048891815260200190565b60405180910390a350505050565b6001600160a01b0383166104c0578060025f8282546104b5919061070d565b909155506105309050565b6001600160a01b0383165f90815260208190526040902054818110156105125760405163391434e360e21b81526001600160a01b03851660048201526024810182905260448101839052606401610316565b6001600160a01b0384165f9081526020819052604090209082900390555b6001600160a01b03821661054c5760028054829003905561056a565b6001600160a01b0382165f9081526020819052604090208054820190555b816001600160a01b0316836001600160a01b03167fddf252ad1be2c89b69c2b068fc378daa952ba7f163c4a11628f55a4df523b3ef836040516105af91815260200190565b60405180910390a3505050565b5f602080835283518060208501525f5b818110156105e8578581018301518582016040015282016105cc565b505f604082860101526040601f19601f8301168501019250505092915050565b80356001600160a01b038116811461061e575f80fd5b919050565b5f8060408385031215610634575f80fd5b61063d83610608565b946020939093013593505050565b5f805f6060848603121561065d575f80fd5b61066684610608565b925061067460208501610608565b9150604084013590509250925092565b5f60208284031215610694575f80fd5b61069d82610608565b9392505050565b5f80604083850312156106b5575f80fd5b6106be83610608565b91506106cc60208401610608565b90509250929050565b600181811c908216806106e957607f821691505b60208210810361070757634e487b7160e01b5f52602260045260245ffd5b50919050565b8082018082111561024d57634e487b7160e01b5f52601160045260245ffdfea2646970667358221220ef97e059b379a3b3fcc55437ca0463b9e05644549317f7aca0884dc0b8ffbd4b64736f6c63430008180033000000000000000000000000000000000000000000000000000000000000006000000000000000000000000000000000000000000000000000000000000000a0000000000000000000000000000000000000000000000000000000000000001200000000000000000000000000000000000000000000000000000000000000074c756e612041490000000000000000000000000000000000000000000000000000000000000000000000000000000000000000000000000000000000000000044c554e4100000000000000000000000000000000000000000000000000000000",
        "nonce": "0x9",
        "chainId": "0x14a34"
      },
      "additionalContracts": [],
      "isFixedGasLimit": false
    },
    {
      "hash": "0xa39363fa41a314a4228f884e28db2dc081e4f556667339ee592133f6e2e8f58a",
      "transactionType": "CREATE",
      "contractName": "MockERC20",
      "contractAddress": "0xfb95899bd60e5a69454524f700726c706684412e",
      "function": null,
      "arguments": [
        "Game",
        "GAME",
        "18"
      ],
      "transaction": {
        "from": "0xe07c1f87a82c9e5aa936748370e5a8dc8ef3c2bb",
        "gas": "0xac487",
        "value": "0x0",
        "input": "0x608060405234801562000010575f80fd5b5060405162000a7938038062000a79833981016040819052620000339162000134565b828260036200004383826200023d565b5060046200005282826200023d565b50506005805460ff191660ff93909316929092179091555062000309915050565b634e487b7160e01b5f52604160045260245ffd5b5f82601f83011262000097575f80fd5b81516001600160401b0380821115620000b457620000b462000073565b604051601f8301601f19908116603f01168101908282118183101715620000df57620000df62000073565b8160405283815260209250866020858801011115620000fc575f80fd5b5f91505b838210156200011f578582018301518183018401529082019062000100565b5f602085830101528094505050505092915050565b5f805f6060848603121562000147575f80fd5b83516001600160401b03808211156200015e575f80fd5b6200016c8783880162000087565b9450602086015191508082111562000182575f80fd5b50620001918682870162000087565b925050604084015160ff81168114620001a8575f80fd5b809150509250925092565b600181811c90821680620001c857607f821691505b602082108103620001e757634e487b7160e01b5f52602260045260245ffd5b50919050565b601f8211156200023857805f5260205f20601f840160051c81016020851015620002145750805b601f840160051c820191505b8181101562000235575f815560010162000220565b50505b505050565b81516001600160401b0381111562000259576200025962000073565b62000271816200026a8454620001b3565b84620001ed565b602080601f831160018114620002a7575f84156200028f5750858301515b5f19600386901b1c1916600185901b17855562000301565b5f85815260208120601f198616915b82811015620002d757888601518255948401946001909101908401620002b6565b5085821015620002f557878501515f19600388901b60f8161c191681555b505060018460011b0185555b505050505050565b61076280620003175f395ff3fe608060405234801561000f575f80fd5b506004361061009b575f3560e01c806340c10f191161006357806340c10f191461011a57806370a082311461012f57806395d89b4114610157578063a9059cbb1461015f578063dd62ed3e14610172575f80fd5b806306fdde031461009f578063095ea7b3146100bd57806318160ddd146100e057806323b872dd146100f2578063313ce56714610105575b5f80fd5b6100a76101aa565b6040516100b491906105bc565b60405180910390f35b6100d06100cb366004610623565b61023a565b60405190151581526020016100b4565b6002545b6040519081526020016100b4565b6100d061010036600461064b565b610253565b60055460405160ff90911681526020016100b4565b61012d610128366004610623565b610276565b005b6100e461013d366004610684565b6001600160a01b03165f9081526020819052604090205490565b6100a7610284565b6100d061016d366004610623565b610293565b6100e46101803660046106a4565b6001600160a01b039182165f90815260016020908152604080832093909416825291909152205490565b6060600380546101b9906106d5565b80601f01602080910402602001604051908101604052809291908181526020018280546101e5906106d5565b80156102305780601f1061020757610100808354040283529160200191610230565b820191905f5260205f20905b81548152906001019060200180831161021357829003601f168201915b5050505050905090565b5f336102478185856102a0565b60019150505b92915050565b5f336102608582856102b2565b61026b858585610333565b506001949350505050565b6102808282610390565b5050565b6060600480546101b9906106d5565b5f33610247818585610333565b6102ad83838360016103c4565b505050565b6001600160a01b038381165f908152600160209081526040808320938616835292905220545f1981101561032d578181101561031f57604051637dc7a0d960e11b81526001600160a01b038416600482015260248101829052604481018390526064015b60405180910390fd5b61032d84848484035f6103c4565b50505050565b6001600160a01b03831661035c57604051634b637e8f60e11b81525f6004820152602401610316565b6001600160a01b0382166103855760405163ec442f0560e01b81525f6004820152602401610316565b6102ad838383610496565b6001600160a01b0382166103b95760405163ec442f0560e01b81525f6004820152602401610316565b6102805f8383610496565b6001600160a01b0384166103ed5760405163e602df0560e01b81525f6004820152602401610316565b6001600160a01b03831661041657604051634a1406b160e11b81525f6004820152602401610316565b6001600160a01b038085165f908152600160209081526040808320938716835292905220829055801561032d57826001600160a01b0316846001600160a01b03167f8c5be1e5ebec7d5bd14f71427d1e84f3dd0314c0f7b2291e5b200ac8c7c3b9258460405161048891815260200190565b60405180910390a350505050565b6001600160a01b0383166104c0578060025f8282546104b5919061070d565b909155506105309050565b6001600160a01b0383165f90815260208190526040902054818110156105125760405163391434e360e21b81526001600160a01b03851660048201526024810182905260448101839052606401610316565b6001600160a01b0384165f9081526020819052604090209082900390555b6001600160a01b03821661054c5760028054829003905561056a565b6001600160a01b0382165f9081526020819052604090208054820190555b816001600160a01b0316836001600160a01b03167fddf252ad1be2c89b69c2b068fc378daa952ba7f163c4a11628f55a4df523b3ef836040516105af91815260200190565b60405180910390a3505050565b5f602080835283518060208501525f5b818110156105e8578581018301518582016040015282016105cc565b505f604082860101526040601f19601f8301168501019250505092915050565b80356001600160a01b038116811461061e575f80fd5b919050565b5f8060408385031215610634575f80fd5b61063d83610608565b946020939093013593505050565b5f805f6060848603121561065d575f80fd5b61066684610608565b925061067460208501610608565b9150604084013590509250925092565b5f60208284031215610694575f80fd5b61069d82610608565b9392505050565b5f80604083850312156106b5575f80fd5b6106be83610608565b91506106cc60208401610608565b90509250929050565b600181811c908216806106e957607f821691505b60208210810361070757634e487b7160e01b5f52602260045260245ffd5b50919050565b8082018082111561024d57634e487b7160e01b5f52601160045260245ffdfea2646970667358221220ef97e059b379a3b3fcc55437ca0463b9e05644549317f7aca0884dc0b8ffbd4b64736f6c63430008180033000000000000000000000000000000000000000000000000000000000000006000000000000000000000000000000000000000000000000000000000000000a00000000000000000000000000000000000000000000000000000000000000012000000000000000000000000000000000000000000000000000000000000000447616d6500000000000000000000000000000000000000000000000000000000000000000000000000000000000000000000000000000000000000000000000447414d4500000000000000000000000000000000000000000000000000000000",
        "nonce": "0xa",
        "chainId": "0x14a34"
      },
      "additionalContracts": [],
      "isFixedGasLimit": false
    },
    {
      "hash": "0x4d1889ecfaf275c3af32e3cef103aca47fdbcf4fd38850082041c4c5842be8dc",
      "transactionType": "CALL",
      "contractName": "MockERC20",
      "contractAddress": "0x79313774d593930b5b33e8712c0b5ec27bd25bf3",
      "function": "mint(address,uint256)",
      "arguments": [
        "0xe07c1F87A82C9e5aA936748370e5A8DC8EF3C2bB",
        "1000000000000000000000000"
      ],
      "transaction": {
        "from": "0xe07c1f87a82c9e5aa936748370e5a8dc8ef3c2bb",
        "to": "0x79313774d593930b5b33e8712c0b5ec27bd25bf3",
        "gas": "0x17133",
        "value": "0x0",
        "input": "0x40c10f19000000000000000000000000e07c1f87a82c9e5aa936748370e5a8dc8ef3c2bb00000000000000000000000000000000000000000000d3c21bcecceda1000000",
        "nonce": "0xb",
        "chainId": "0x14a34"
      },
      "additionalContracts": [],
      "isFixedGasLimit": false
    },
    {
      "hash": "0xa7d1d4027557a704e55969e2e6898ed4ae2a0f600637aeba3f29c722e433dc86",
      "transactionType": "CALL",
      "contractName": "MockERC20",
      "contractAddress": "0x0cb68358c9d76b6652a7fde3364fff2c3ddf2de1",
      "function": "mint(address,uint256)",
      "arguments": [
        "0xe07c1F87A82C9e5aA936748370e5A8DC8EF3C2bB",
        "1000000000000000000000000"
      ],
      "transaction": {
        "from": "0xe07c1f87a82c9e5aa936748370e5a8dc8ef3c2bb",
        "to": "0x0cb68358c9d76b6652a7fde3364fff2c3ddf2de1",
        "gas": "0x17133",
        "value": "0x0",
        "input": "0x40c10f19000000000000000000000000e07c1f87a82c9e5aa936748370e5a8dc8ef3c2bb00000000000000000000000000000000000000000000d3c21bcecceda1000000",
        "nonce": "0xc",
        "chainId": "0x14a34"
      },
      "additionalContracts": [],
      "isFixedGasLimit": false
    },
    {
      "hash": "0x36a41eef82e79b7185883fc540eeb5f581ff96f8552b66b85733fceef62067f7",
      "transactionType": "CALL",
      "contractName": "MockERC20",
      "contractAddress": "0xd8a46ed38e9d874fd844bc47b912dd0ec35ebae4",
      "function": "mint(address,uint256)",
      "arguments": [
        "0xe07c1F87A82C9e5aA936748370e5A8DC8EF3C2bB",
        "1000000000000000000000000"
      ],
      "transaction": {
        "from": "0xe07c1f87a82c9e5aa936748370e5a8dc8ef3c2bb",
        "to": "0xd8a46ed38e9d874fd844bc47b912dd0ec35ebae4",
        "gas": "0x17133",
        "value": "0x0",
        "input": "0x40c10f19000000000000000000000000e07c1f87a82c9e5aa936748370e5a8dc8ef3c2bb00000000000000000000000000000000000000000000d3c21bcecceda1000000",
        "nonce": "0xd",
        "chainId": "0x14a34"
      },
      "additionalContracts": [],
      "isFixedGasLimit": false
    },
    {
      "hash": "0x7e4a6bb07028be2d4c403e4533755ce5d5c1d2fab386fef2109681b476c9a24d",
      "transactionType": "CALL",
      "contractName": "MockERC20",
      "contractAddress": "0x447bcaa1a541e9c806789d90f23f2c0603fa313a",
      "function": "mint(address,uint256)",
      "arguments": [
        "0xe07c1F87A82C9e5aA936748370e5A8DC8EF3C2bB",
        "1000000000000000000000000"
      ],
      "transaction": {
        "from": "0xe07c1f87a82c9e5aa936748370e5a8dc8ef3c2bb",
        "to": "0x447bcaa1a541e9c806789d90f23f2c0603fa313a",
        "gas": "0x17133",
        "value": "0x0",
        "input": "0x40c10f19000000000000000000000000e07c1f87a82c9e5aa936748370e5a8dc8ef3c2bb00000000000000000000000000000000000000000000d3c21bcecceda1000000",
        "nonce": "0xe",
        "chainId": "0x14a34"
      },
      "additionalContracts": [],
      "isFixedGasLimit": false
    },
    {
      "hash": "0xa042cdb2a0b062db4e43884d180a21c2f19c8f8dc70c14102440c141bf9ac895",
      "transactionType": "CALL",
      "contractName": "MockERC20",
      "contractAddress": "0xfb95899bd60e5a69454524f700726c706684412e",
      "function": "mint(address,uint256)",
      "arguments": [
        "0xe07c1F87A82C9e5aA936748370e5A8DC8EF3C2bB",
        "1000000000000000000000000"
      ],
      "transaction": {
        "from": "0xe07c1f87a82c9e5aa936748370e5a8dc8ef3c2bb",
        "to": "0xfb95899bd60e5a69454524f700726c706684412e",
        "gas": "0x17133",
        "value": "0x0",
        "input": "0x40c10f19000000000000000000000000e07c1f87a82c9e5aa936748370e5a8dc8ef3c2bb00000000000000000000000000000000000000000000d3c21bcecceda1000000",
        "nonce": "0xf",
        "chainId": "0x14a34"
      },
      "additionalContracts": [],
      "isFixedGasLimit": false
    },
    {
      "hash": "0xc586343f6f2be9e032f52200d224aa9a0a5bf2a7a200aec046950d76421acdad",
      "transactionType": "CALL",
      "contractName": null,
      "contractAddress": "0xeaf974f3dca1b444848b0a31e411187949596e5c",
      "function": "setBasket(address[],uint256[])",
      "arguments": [
        "[0x79313774D593930B5B33e8712C0B5ec27BD25Bf3, 0x0CB68358C9d76B6652A7fDE3364FFF2C3DDf2de1, 0xD8A46eD38e9d874Fd844bC47b912dD0Ec35eBAe4, 0x447BCAa1A541e9C806789d90f23F2C0603FA313a, 0xFb95899bd60e5A69454524f700726C706684412e]",
        "[2000, 2000, 2000, 2000, 2000]"
      ],
      "transaction": {
        "from": "0xe07c1f87a82c9e5aa936748370e5a8dc8ef3c2bb",
        "to": "0xeaf974f3dca1b444848b0a31e411187949596e5c",
        "gas": "0x8f37e",
        "value": "0x0",
        "input": "0x0db189b400000000000000000000000000000000000000000000000000000000000000400000000000000000000000000000000000000000000000000000000000000100000000000000000000000000000000000000000000000000000000000000000500000000000000000000000079313774d593930b5b33e8712c0b5ec27bd25bf30000000000000000000000000cb68358c9d76b6652a7fde3364fff2c3ddf2de1000000000000000000000000d8a46ed38e9d874fd844bc47b912dd0ec35ebae4000000000000000000000000447bcaa1a541e9c806789d90f23f2c0603fa313a000000000000000000000000fb95899bd60e5a69454524f700726c706684412e000000000000000000000000000000000000000000000000000000000000000500000000000000000000000000000000000000000000000000000000000007d000000000000000000000000000000000000000000000000000000000000007d000000000000000000000000000000000000000000000000000000000000007d000000000000000000000000000000000000000000000000000000000000007d000000000000000000000000000000000000000000000000000000000000007d0",
        "nonce": "0x10",
        "chainId": "0x14a34"
      },
      "additionalContracts": [],
      "isFixedGasLimit": false
    }
  ],
  "receipts": [
    {
      "status": "0x1",
      "cumulativeGasUsed": "0x36a4d7",
      "logs": [],
      "logsBloom": "0x00000000000000000000000000000000000000000000000000000000000000000000000000000000000000000000000000000000000000000000000000000000000000000000000000000000000000000000000000000000000000000000000000000000000000000000000000000000000000000000000000000000000000000000000000000000000000000000000000000000000000000000000000000000000000000000000000000000000000000000000000000000000000000000000000000000000000000000000000000000000000000000000000000000000000000000000000000000000000000000000000000000000000000000000000000000",
      "type": "0x2",
      "transactionHash": "0x2d2e7e991f872179b019c982b5f9c0bc8d5c1d74a962d1bf6388306ad9fa7955",
      "transactionIndex": "0xd",
      "blockHash": "0x2abd821dd68d86a602bad10dd694c86dbe932b1550af511638c4f6a00e0d090b",
      "blockNumber": "0x2363664",
      "gasUsed": "0x8491c",
      "effectiveGasPrice": "0x124fc2",
      "blobGasUsed": "0x87348",
      "from": "0xe07c1f87a82c9e5aa936748370e5a8dc8ef3c2bb",
      "to": null,
      "contractAddress": "0x79313774d593930b5b33e8712c0b5ec27bd25bf3",
      "daFootprintGasScalar": "0x138",
      "l1BaseFeeScalar": "0x44d",
      "l1BlobBaseFee": "0x38b123d",
      "l1BlobBaseFeeScalar": "0xa118b",
      "l1Fee": "0x183bb44c68",
      "l1GasPrice": "0x4192a035",
      "l1GasUsed": "0x6eff"
    },
    {
      "status": "0x1",
      "cumulativeGasUsed": "0x3eed93",
      "logs": [],
      "logsBloom": "0x00000000000000000000000000000000000000000000000000000000000000000000000000000000000000000000000000000000000000000000000000000000000000000000000000000000000000000000000000000000000000000000000000000000000000000000000000000000000000000000000000000000000000000000000000000000000000000000000000000000000000000000000000000000000000000000000000000000000000000000000000000000000000000000000000000000000000000000000000000000000000000000000000000000000000000000000000000000000000000000000000000000000000000000000000000000",
      "type": "0x2",
      "transactionHash": "0x584a359ca568a6d4c01647c962016f78c79fee5a9c1b534bfcec577e86b3b687",
      "transactionIndex": "0xe",
      "blockHash": "0x2abd821dd68d86a602bad10dd694c86dbe932b1550af511638c4f6a00e0d090b",
      "blockNumber": "0x2363664",
      "gasUsed": "0x848bc",
      "effectiveGasPrice": "0x124fc2",
      "blobGasUsed": "0x86bf8",
      "from": "0xe07c1f87a82c9e5aa936748370e5a8dc8ef3c2bb",
      "to": null,
      "contractAddress": "0x0cb68358c9d76b6652a7fde3364fff2c3ddf2de1",
      "daFootprintGasScalar": "0x138",
      "l1BaseFeeScalar": "0x44d",
      "l1BlobBaseFee": "0x38b123d",
      "l1BlobBaseFeeScalar": "0xa118b",
      "l1Fee": "0x183bb44c68",
      "l1GasPrice": "0x4192a035",
      "l1GasUsed": "0x6e94"
    },
    {
      "status": "0x1",
      "cumulativeGasUsed": "0x473613",
      "logs": [],
      "logsBloom": "0x00000000000000000000000000000000000000000000000000000000000000000000000000000000000000000000000000000000000000000000000000000000000000000000000000000000000000000000000000000000000000000000000000000000000000000000000000000000000000000000000000000000000000000000000000000000000000000000000000000000000000000000000000000000000000000000000000000000000000000000000000000000000000000000000000000000000000000000000000000000000000000000000000000000000000000000000000000000000000000000000000000000000000000000000000000000",
      "type": "0x2",
      "transactionHash": "0xa7d1d4027557a704e55969e2e6898ed4ae2a0f600637aeba3f29c722e433dc86",
      "transactionIndex": "0xf",
      "blockHash": "0x2abd821dd68d86a602bad10dd694c86dbe932b1550af511638c4f6a00e0d090b",
      "blockNumber": "0x2363664",
      "gasUsed": "0x84880",
      "effectiveGasPrice": "0x124fc2",
      "blobGasUsed": "0x86718",
      "from": "0xe07c1f87a82c9e5aa936748370e5a8dc8ef3c2bb",
      "to": null,
      "contractAddress": "0xd8a46ed38e9d874fd844bc47b912dd0ec35ebae4",
      "daFootprintGasScalar": "0x138",
      "l1BaseFeeScalar": "0x44d",
      "l1BlobBaseFee": "0x38b123d",
      "l1BlobBaseFeeScalar": "0xa118b",
      "l1Fee": "0x183bb44c68",
      "l1GasPrice": "0x4192a035",
      "l1GasUsed": "0x6e51"
    },
    {
      "status": "0x1",
      "cumulativeGasUsed": "0x4f7e9f",
      "logs": [],
      "logsBloom": "0x00000000000000000000000000000000000000000000000000000000000000000000000000000000000000000000000000000000000000000000000000000000000000000000000000000000000000000000000000000000000000000000000000000000000000000000000000000000000000000000000000000000000000000000000000000000000000000000000000000000000000000000000000000000000000000000000000000000000000000000000000000000000000000000000000000000000000000000000000000000000000000000000000000000000000000000000000000000000000000000000000000000000000000000000000000000",
      "type": "0x2",
      "transactionHash": "0x36a41eef82e79b7185883fc540eeb5f581ff96f8552b66b85733fceef62067f7",
      "transactionIndex": "0x10",
      "blockHash": "0x2abd821dd68d86a602bad10dd694c86dbe932b1550af511638c4f6a00e0d090b",
      "blockNumber": "0x2363664",
      "gasUsed": "0x8488c",
      "effectiveGasPrice": "0x124fc2",
      "blobGasUsed": "0x86718",
      "from": "0xe07c1f87a82c9e5aa936748370e5a8dc8ef3c2bb",
      "to": null,
      "contractAddress": "0x447bcaa1a541e9c806789d90f23f2c0603fa313a",
      "daFootprintGasScalar": "0x138",
      "l1BaseFeeScalar": "0x44d",
      "l1BlobBaseFee": "0x38b123d",
      "l1BlobBaseFeeScalar": "0xa118b",
      "l1Fee": "0x183bb44c68",
      "l1GasPrice": "0x4192a035",
      "l1GasUsed": "0x6e5e"
    },
    {
      "status": "0x1",
      "cumulativeGasUsed": "0x57c707",
      "logs": [],
      "logsBloom": "0x00000000000000000000000000000000000000000000000000000000000000000000000000000000000000000000000000000000000000000000000000000000000000000000000000000000000000000000000000000000000000000000000000000000000000000000000000000000000000000000000000000000000000000000000000000000000000000000000000000000000000000000000000000000000000000000000000000000000000000000000000000000000000000000000000000000000000000000000000000000000000000000000000000000000000000000000000000000000000000000000000000000000000000000000000000000",
      "type": "0x2",
      "transactionHash": "0x7e4a6bb07028be2d4c403e4533755ce5d5c1d2fab386fef2109681b476c9a24d",
      "transactionIndex": "0x11",
      "blockHash": "0x2abd821dd68d86a602bad10dd694c86dbe932b1550af511638c4f6a00e0d090b",
      "blockNumber": "0x2363664",
      "gasUsed": "0x84868",
      "effectiveGasPrice": "0x124fc2",
      "blobGasUsed": "0x864a8",
      "from": "0xe07c1f87a82c9e5aa936748370e5a8dc8ef3c2bb",
      "to": null,
      "contractAddress": "0xfb95899bd60e5a69454524f700726c706684412e",
      "daFootprintGasScalar": "0x138",
      "l1BaseFeeScalar": "0x44d",
      "l1BlobBaseFee": "0x38b123d",
      "l1BlobBaseFeeScalar": "0xa118b",
      "l1Fee": "0x183bb44c68",
      "l1GasPrice": "0x4192a035",
      "l1GasUsed": "0x6e36"
    },
    {
      "status": "0x1",
      "cumulativeGasUsed": "0x5aa93d",
      "logs": [
        {
          "address": "0x79313774d593930b5b33e8712c0b5ec27bd25bf3",
          "topics": [
            "0xddf252ad1be2c89b69c2b068fc378daa952ba7f163c4a11628f55a4df523b3ef",
            "0x0000000000000000000000000000000000000000000000000000000000000000",
            "0x000000000000000000000000e07c1f87a82c9e5aa936748370e5a8dc8ef3c2bb"
          ],
          "data": "0x00000000000000000000000000000000000000000000d3c21bcecceda1000000",
          "blockHash": "0x9a9010ec3bab126e6ca82006a2cffcd544bce1ef18394b17334411ac67fd3d70",
          "blockNumber": "0x2363664",
          "blockTimestamp": "0x697fcba8",
          "transactionHash": "0x41db5706ad5c193b1a5863ec84e259405334aad367df607ecfbcb40e7b804927",
          "transactionIndex": "0x14",
          "logIndex": "0x2f",
          "removed": false
        }
      ],
      "logsBloom": "0x00000000000000000400000000000000000000000000000000000000000000000000000000000000000000000000000000000000000000000000000000000000000000000000000000000008000000000000000000000000000000000000000000000000020000000000000000000800000000000000000000000010000000000000000000000000000000000000000000000000000000000000000000000000000000000000800000000000000000000000000000000000000000000000000000000002000000000000000000000000000000000000000000000002000020080000000000000000000000000000000000000000000000000000008000000004",
      "type": "0x2",
      "transactionHash": "0x41db5706ad5c193b1a5863ec84e259405334aad367df607ecfbcb40e7b804927",
      "transactionIndex": "0x14",
      "blockHash": "0x9a9010ec3bab126e6ca82006a2cffcd544bce1ef18394b17334411ac67fd3d70",
      "blockNumber": "0x2363664",
      "gasUsed": "0x10b4c",
      "effectiveGasPrice": "0x124fc2",
      "blobGasUsed": "0x79e0",
      "from": "0xe07c1f87a82c9e5aa936748370e5a8dc8ef3c2bb",
      "to": "0x79313774d593930b5b33e8712c0b5ec27bd25bf3",
      "contractAddress": null,
      "daFootprintGasScalar": "0x138",
      "l1BaseFeeScalar": "0x44d",
      "l1BlobBaseFee": "0x38b123d",
      "l1BlobBaseFeeScalar": "0xa118b",
      "l1Fee": "0x15d5081b8",
      "l1GasPrice": "0x4192a035",
      "l1GasUsed": "0x640"
    },
    {
      "status": "0x1",
      "cumulativeGasUsed": "0x5bb489",
      "logs": [
        {
          "address": "0x0cb68358c9d76b6652a7fde3364fff2c3ddf2de1",
          "topics": [
            "0xddf252ad1be2c89b69c2b068fc378daa952ba7f163c4a11628f55a4df523b3ef",
            "0x0000000000000000000000000000000000000000000000000000000000000000",
            "0x000000000000000000000000e07c1f87a82c9e5aa936748370e5a8dc8ef3c2bb"
          ],
          "data": "0x00000000000000000000000000000000000000000000d3c21bcecceda1000000",
          "blockHash": "0x9a9010ec3bab126e6ca82006a2cffcd544bce1ef18394b17334411ac67fd3d70",
          "blockNumber": "0x2363664",
          "blockTimestamp": "0x697fcba8",
          "transactionHash": "0x4d1889ecfaf275c3af32e3cef103aca47fdbcf4fd38850082041c4c5842be8dc",
          "transactionIndex": "0x15",
          "logIndex": "0x30",
          "removed": false
        }
      ],
      "logsBloom": "0x00000000000000000400000000000000000000000000000000000000000000000000000000000000800000000000000000000000000000000000000000000000000000000000000000000008000000000000000000000000000000000000000000000000020000000000000000000800000000000000000000000010000000000002000000000000000000000000000000000000000000000000000000000000000000000000000000000000000000000000000000000000000000000000000000008002000000000000000000000000000000000000000000000000000020080000000000000000000000000000000000000000000000000000000000000004",
      "type": "0x2",
      "transactionHash": "0x4d1889ecfaf275c3af32e3cef103aca47fdbcf4fd38850082041c4c5842be8dc",
      "transactionIndex": "0x15",
      "blockHash": "0x9a9010ec3bab126e6ca82006a2cffcd544bce1ef18394b17334411ac67fd3d70",
      "blockNumber": "0x2363664",
      "gasUsed": "0x10b4c",
      "effectiveGasPrice": "0x124fc2",
      "blobGasUsed": "0x79e0",
      "from": "0xe07c1f87a82c9e5aa936748370e5a8dc8ef3c2bb",
      "to": "0x0cb68358c9d76b6652a7fde3364fff2c3ddf2de1",
      "contractAddress": null,
      "daFootprintGasScalar": "0x138",
      "l1BaseFeeScalar": "0x44d",
      "l1BlobBaseFee": "0x38b123d",
      "l1BlobBaseFeeScalar": "0xa118b",
      "l1Fee": "0x15d5081b8",
      "l1GasPrice": "0x4192a035",
      "l1GasUsed": "0x640"
    },
    {
      "status": "0x1",
      "cumulativeGasUsed": "0x5cbfd5",
      "logs": [
        {
          "address": "0xd8a46ed38e9d874fd844bc47b912dd0ec35ebae4",
          "topics": [
            "0xddf252ad1be2c89b69c2b068fc378daa952ba7f163c4a11628f55a4df523b3ef",
            "0x0000000000000000000000000000000000000000000000000000000000000000",
            "0x000000000000000000000000e07c1f87a82c9e5aa936748370e5a8dc8ef3c2bb"
          ],
          "data": "0x00000000000000000000000000000000000000000000d3c21bcecceda1000000",
          "blockHash": "0x9a9010ec3bab126e6ca82006a2cffcd544bce1ef18394b17334411ac67fd3d70",
          "blockNumber": "0x2363664",
          "blockTimestamp": "0x697fcba8",
          "transactionHash": "0x21a8a48c50d7394149a5fa52deffcef2a6bcc5a30d97fdf56415db8ae2ff3eef",
          "transactionIndex": "0x16",
          "logIndex": "0x31",
          "removed": false
        }
      ],
      "logsBloom": "0x00000000000000000400000000000004000000000000000000000000000000000000000000000000000000000000000000000000000000000000000000000000000000000000000000000008000000000000000000000000000000000000000000000000020000000000000000000800000000000800000000000010000000000000000000000000000000000000000000000000000000001000000000000000000000000000000000000000000000000000000000000000000000000000000000000002000000000000000000000000000000000000000000000000000020080000000000000000000000000000000000000000000000000000000000000004",
      "type": "0x2",
      "transactionHash": "0x21a8a48c50d7394149a5fa52deffcef2a6bcc5a30d97fdf56415db8ae2ff3eef",
      "transactionIndex": "0x16",
      "blockHash": "0x9a9010ec3bab126e6ca82006a2cffcd544bce1ef18394b17334411ac67fd3d70",
      "blockNumber": "0x2363664",
      "gasUsed": "0x10b4c",
      "effectiveGasPrice": "0x124fc2",
      "blobGasUsed": "0x79e0",
      "from": "0xe07c1f87a82c9e5aa936748370e5a8dc8ef3c2bb",
      "to": "0xd8a46ed38e9d874fd844bc47b912dd0ec35ebae4",
      "contractAddress": null,
      "daFootprintGasScalar": "0x138",
      "l1BaseFeeScalar": "0x44d",
      "l1BlobBaseFee": "0x38b123d",
      "l1BlobBaseFeeScalar": "0xa118b",
      "l1Fee": "0x15d5081b8",
      "l1GasPrice": "0x4192a035",
      "l1GasUsed": "0x640"
    },
    {
      "status": "0x1",
      "cumulativeGasUsed": "0x5dcb21",
      "logs": [
        {
          "address": "0x447bcaa1a541e9c806789d90f23f2c0603fa313a",
          "topics": [
            "0xddf252ad1be2c89b69c2b068fc378daa952ba7f163c4a11628f55a4df523b3ef",
            "0x0000000000000000000000000000000000000000000000000000000000000000",
            "0x000000000000000000000000e07c1f87a82c9e5aa936748370e5a8dc8ef3c2bb"
          ],
          "data": "0x00000000000000000000000000000000000000000000d3c21bcecceda1000000",
          "blockHash": "0x9a9010ec3bab126e6ca82006a2cffcd544bce1ef18394b17334411ac67fd3d70",
          "blockNumber": "0x2363664",
          "blockTimestamp": "0x697fcba8",
          "transactionHash": "0xa042cdb2a0b062db4e43884d180a21c2f19c8f8dc70c14102440c141bf9ac895",
          "transactionIndex": "0x17",
          "logIndex": "0x32",
          "removed": false
        }
      ],
      "logsBloom": "0x00000000000000000400000000000000000000000000000000000000000000000000000000000000000000000000000000400000000000000000000000000000000000000000000000000008000000000000200000000000000000000000000000000000020000000000000000000800000000000000000000000010000000000000000000000000000000000000000000000000000000000000000000000000000000000000000000000000000000000000000000000000000000000000000000000802000000000000000000000000000000000000000000000000000020080000000000000000000000000000000000000000000000000000000000000004",
      "type": "0x2",
      "transactionHash": "0xa042cdb2a0b062db4e43884d180a21c2f19c8f8dc70c14102440c141bf9ac895",
      "transactionIndex": "0x17",
      "blockHash": "0x9a9010ec3bab126e6ca82006a2cffcd544bce1ef18394b17334411ac67fd3d70",
      "blockNumber": "0x2363664",
      "gasUsed": "0x10b4c",
      "effectiveGasPrice": "0x124fc2",
      "blobGasUsed": "0x79e0",
      "from": "0xe07c1f87a82c9e5aa936748370e5a8dc8ef3c2bb",
      "to": "0x447bcaa1a541e9c806789d90f23f2c0603fa313a",
      "contractAddress": null,
      "daFootprintGasScalar": "0x138",
      "l1BaseFeeScalar": "0x44d",
      "l1BlobBaseFee": "0x38b123d",
      "l1BlobBaseFeeScalar": "0xa118b",
      "l1Fee": "0x15d5081b8",
      "l1GasPrice": "0x4192a035",
      "l1GasUsed": "0x640"
    },
    {
      "status": "0x1",
      "cumulativeGasUsed": "0x5ed66d",
      "logs": [
        {
          "address": "0xfb95899bd60e5a69454524f700726c706684412e",
          "topics": [
            "0xddf252ad1be2c89b69c2b068fc378daa952ba7f163c4a11628f55a4df523b3ef",
            "0x0000000000000000000000000000000000000000000000000000000000000000",
            "0x000000000000000000000000e07c1f87a82c9e5aa936748370e5a8dc8ef3c2bb"
          ],
          "data": "0x00000000000000000000000000000000000000000000d3c21bcecceda1000000",
          "blockHash": "0x9a9010ec3bab126e6ca82006a2cffcd544bce1ef18394b17334411ac67fd3d70",
          "blockNumber": "0x2363664",
          "blockTimestamp": "0x697fcba8",
          "transactionHash": "0xc586343f6f2be9e032f52200d224aa9a0a5bf2a7a200aec046950d76421acdad",
          "transactionIndex": "0x18",
          "logIndex": "0x33",
          "removed": false
        }
      ],
      "logsBloom": "0x00000000000000000400000000000000000000000000000000000000000004000000000000000000000000000000000000000000000000000000000000000000000000000000000000000008000000000000000000000000000000000000000000000000020000000000000000000800000000000000000000000010000000000000000000000000000000000000000000000000000000040000000000000000100000000000000000000000000000000000000000000000000000000000000000000002000000000000000000000000000000000000000000000000000020080000000000000000000000000000000000000000000000000000000000000004",
      "type": "0x2",
      "transactionHash": "0xc586343f6f2be9e032f52200d224aa9a0a5bf2a7a200aec046950d76421acdad",
      "transactionIndex": "0x18",
      "blockHash": "0x9a9010ec3bab126e6ca82006a2cffcd544bce1ef18394b17334411ac67fd3d70",
      "blockNumber": "0x2363664",
      "gasUsed": "0x10b4c",
      "effectiveGasPrice": "0x124fc2",
      "blobGasUsed": "0x79e0",
      "from": "0xe07c1f87a82c9e5aa936748370e5a8dc8ef3c2bb",
      "to": "0xfb95899bd60e5a69454524f700726c706684412e",
      "contractAddress": null,
      "daFootprintGasScalar": "0x138",
      "l1BaseFeeScalar": "0x44d",
      "l1BlobBaseFee": "0x38b123d",
      "l1BlobBaseFeeScalar": "0xa118b",
      "l1Fee": "0x15d5081b8",
      "l1GasPrice": "0x4192a035",
      "l1GasUsed": "0x640"
    },
    {
      "status": "0x1",
      "cumulativeGasUsed": "0x65516d",
      "logs": [
        {
          "address": "0xeaf974f3dca1b444848b0a31e411187949596e5c",
          "topics": [
            "0xbfd880dff0c2337c52aed21b5d8e6792fe43d28f6767668c4c8c9fd72add4cfc"
          ],
          "data": "0x00000000000000000000000000000000000000000000000000000000000000400000000000000000000000000000000000000000000000000000000000000100000000000000000000000000000000000000000000000000000000000000000500000000000000000000000079313774d593930b5b33e8712c0b5ec27bd25bf30000000000000000000000000cb68358c9d76b6652a7fde3364fff2c3ddf2de1000000000000000000000000d8a46ed38e9d874fd844bc47b912dd0ec35ebae4000000000000000000000000447bcaa1a541e9c806789d90f23f2c0603fa313a000000000000000000000000fb95899bd60e5a69454524f700726c706684412e000000000000000000000000000000000000000000000000000000000000000500000000000000000000000000000000000000000000000000000000000007d000000000000000000000000000000000000000000000000000000000000007d000000000000000000000000000000000000000000000000000000000000007d000000000000000000000000000000000000000000000000000000000000007d000000000000000000000000000000000000000000000000000000000000007d0",
          "blockHash": "0x9a9010ec3bab126e6ca82006a2cffcd544bce1ef18394b17334411ac67fd3d70",
          "blockNumber": "0x2363664",
          "blockTimestamp": "0x697fcba8",
          "transactionHash": "0xa39363fa41a314a4228f884e28db2dc081e4f556667339ee592133f6e2e8f58a",
          "transactionIndex": "0x19",
          "logIndex": "0x34",
          "removed": false
        }
      ],
      "logsBloom": "0x00001000000000001000000000000000000000000000000000000000000000000000000000000000000000000000000000000000000000000000000000000000000000000000100000000000000000000000000000000000000000000000000000000000000000000000000000000100000000000000000000000000000000000000000000000000000000000000000000000040000000000000000000000000000000000000000000000000000000000000000000000000000000000000000000000000000000000000000000000000000000000000000000000000000000000000000000000000000000080000000000000000000000000000000000000000",
      "type": "0x2",
      "transactionHash": "0xa39363fa41a314a4228f884e28db2dc081e4f556667339ee592133f6e2e8f58a",
      "transactionIndex": "0x19",
      "blockHash": "0x9a9010ec3bab126e6ca82006a2cffcd544bce1ef18394b17334411ac67fd3d70",
      "blockNumber": "0x2363664",
      "gasUsed": "0x67b00",
      "effectiveGasPrice": "0x124fc2",
      "blobGasUsed": "0xf8a0",
      "from": "0xe07c1f87a82c9e5aa936748370e5a8dc8ef3c2bb",
      "to": "0xeaf974f3dca1b444848b0a31e411187949596e5c",
      "contractAddress": null,
      "daFootprintGasScalar": "0x138",
      "l1BaseFeeScalar": "0x44d",
      "l1BlobBaseFee": "0x38b123d",
      "l1BlobBaseFeeScalar": "0xa118b",
      "l1Fee": "0x2c93ca829",
      "l1GasPrice": "0x4192a035",
      "l1GasUsed": "0xcc2"
    }
  ],
  "libraries": [],
  "pending": [],
  "returns": {},
  "timestamp": 1769982889809,
  "chain": 84532,
  "commit": "bd95adf"
}